:0F04FA0050617373776F72643A00000000000066
:1003160078087C007D007BFF7A0579047E007F05E6
:100326001200D3E4F50DF50EF50F1204E67BFF7A05
:100336000479FA7D017F0112045D12018D8F0DE5AE
:100346000D60F7D3940A5020E50D75F00A84AD0FC1
:1003560074082DF8A6F074082DF8E6FB3395E0FA3C
:100366007514017F0212049EE50DFB7A00751402D6
:090376007D017F0212049E80C18A
:1004D100EF1FAC0670011E4C600A7D027CEFDCFE52
:0404E100DDFC80ECD2
:0104E50022F4
:06050900C2A58F80D2A7FD
:08050F007F027EEFDEFEDFFC3F
:0105170022C1
:0A052400C2A6120509C2A702050FC6
:10048000CFCDCFCECCCE1201387C007D0A12013800
:04049000ED2430FF28
:0A049400D2A6120509C2A702050F47
:1004BB00AE07BE0104ED148006BE0209ED243F44D5
:0604CB0080FF120524224F
:1004E6007F381205247F0C1205247F061205247F0F
:0404F60001020524D6
:0A052E00AC031204BBAF04020494F6
:06045D008B108A118912C8
:100463001204BBE4FDAB10AA11A9128D827583009F
:0C0473001200F9FF60061204940D80E9ED
:01047F00225A
:0C042A007F0AEA24FFFDE434FFFC7E00A2
:080436008E158F168C178D182E
:10043E007F017E00E4FBEBC39518E5176480F8742A
:0E044E008098500AAC15AD161201260B80E8FE
:01045C00227D
:04049E008A128B1320
:1004A2001204BBAA14EAD39400400D12042AAC121F
:0804B200AD131204801A80ED65
:0104BA00221F
:10037F001204BBC3EA64809480400B7F2B12049459
:10038F008A1E8B1F800E7F2D120494C3E49BF51FD2
:10039F00E49AF51EAA1DEAD39400400D12042AAC6C
:0903AF001EAD1F1204801A80ED3E
:0103B8002222
:0403B9008A228B23E6
:1003BD001204BBAA24EAD3940040297F1012042C06
:1003CD00AC22AD23CFCDCFCECCCE120138EF540F12
:1003DD00FEC3940AEE5004243080022437FF120429
:0403ED00941A80D10D
:0103F10022E9
:0403F2008A278B28A3
:1003F6001204BBAA29EAD394004028EA24FFFDE4AC
:1004060034FFFC7F027E00120436AC27AD28CFCD28
:10041600CFCECCCE120138EF54012430FF12049413
:030426001A80D267
:0104290022B0
:10018D00E4F5107590FFC2932097137F14FE1204AF
:10019D00D13097FD7F147E001204D1751001209689
:1001AD00147F147E001204D13096FD7F147E001250
:1001BD0004D17510052095147F147E001204D130E2
:1001CD0095FD7F147E001204D17510092094147FC3
:1001DD00147E001204D13094FD7F147E001204D1E0
:1001ED0075100D7590FFC2922097147F147E00122A
:1001FD0004D13097FD7F147E001204D175100220BA
:10020D0096147F147E001204D13096FD7F147E006B
:10021D001204D17510062095147F147E001204D19E
:10022D003095FD7F147E001204D175100A209414B0
:10023D007F147E001204D13094FD7F147E001204D1
:10024D00D175100E7590FFC2912097147F147E000A
:10025D001204D13097FD7F147E001204D175100366
:10026D002096147F147E001204D13096FD7F147EEB
:10027D00001204D17510072095147F147E0012040E
:10028D00D13095FD7F147E001204D175100B209492
:10029D00147F147E001204D13094FD7F147E001261
:1002AD0004D175100F7590FFC2902097147F147EA6
:1002BD00001204D13097FD7F147E001204D1751009
:1002CD00042096147F147E001204D13096FD7F1405
:1002DD007E001204D17510082095147F147E001233
:1002ED0004D13095FD7F147E001204D175100C20C1
:1002FD0094147F147E001204D13094FD7F147E007F
:08030D001204D1751010AF10AD
:0103150022C5
:03000000020518DE
:0C051800787FE4F6D8FD758129020316F7
:10000300E709F608DFFA8046E709F208DFFA803EDF
:1000130088828C83E709F0A3DFFA8032E309F608CC
:10002300DFFA8078E309F208DFFA807088828C8334
:10003300E309F0A3DFFA806489828A83E0A3F608E8
:10004300DFFA805889828A83E0A3F208DFFA804CC2
:1000530080D280FA80C680D4806980F28033801099
:1000630080A680EA809A80A880DA80E280CA803302
:1000730089828A83ECFAE493A3C8C582C8CCC5837A
:10008300CCF0A3C8C582C8CCC583CCDFE9DEE7804A
:100093000D89828A83E493A3F608DFF9ECFAA9F0C9
:1000A300EDFB2289828A83ECFAE0A3C8C582C8CC1F
:1000B300C583CCF0A3C8C582C8CCC583CCDFEADE38
:1000C300E880DB89828A83E493A3F208DFF980CC9A
:1000D30088F0EF60010E4E60C388F0ED2402B40493
:1000E3000050B9F582EB2402B4040050AF2323453A
:0600F3008223900053730C
:1000F900BB010CE58229F582E5833AF583E02250BC
:1001090006E92582F8E622BBFE06E92582F8E22205
:0D011900E58229F582E5833AF583E493221F
:10012600EF8DF0A4A8F0CF8CF0A428CE8DF0A42EED
:02013600FE22A7
:10013800BC000BBE0029EF8DF084FFADF022E4CCAB
:10014800F875F008EF2FFFEE33FEEC33FCEE9DEC74
:10015800984005FCEE9DFE0FD5F0E9E4CEFD22EDBA
:10016800F8F5F0EE8420D21CFEADF075F008EF2F04
:10017800FFED33FD4007985006D5F0F222C398FDF5
:050188000FD5F0EA2292
:00000001FF
